:10000000020081E4FBEBFF3395E0FED3EF9464EE56
:1000100064809480501CE4FDEDFF3395E0FEC3EF57
:100020009414EE64809480500612005B0D80E90BFE
:1000300080D37B64EB3395E0C36480948040C4E458
:10004000FDEDFF3395E0FEC3EF9414EE64809480E1
:10005000500612005B0D80E91B80D9C2A0EBFF3374
:1000600095E0FE120076D2A0EBFF3395E0FEC3745C
:10007000649FFFE49EFEEF1FAC0670011E4C70F6FD
:0D00800022787FE4F6D8FD758107020003A9
:00000001FF
