:0300000002000EED
:0C000E00787FE4F6D8FD758115020055DE
:03021D00011400C9
:1001F1005389F0438901758A9C758CFFC28DD28C1D
:07020100D2A9D2AFC2B9225D
:1001A3001201F120B3137F147E0012020830B3FD55
:1001B3007F147E001202080514E514146011146004
:1001C3001514601924037021751505E4FD8013755A
:1001D30015327D01800C75154B7D02800575156305
:0E01E3007D037F0112009A80BAE4F51480B506
:03000B000201529D
:10015200C0E0C0F0C0D075D000C000C004C005C06F
:0301620006C007CD
:10016500758A9C758CFF0513E51370020512AE1296
:10017500FF7C007D641200FD8C128D13C3E5139581
:0D01850015E51294005004D2A08002C2A023
:10019200D007D006D005D004D000D0D0D0F0D0E027
:0101A200322A
:10020800EF1FAC0670011E4C600A7D027CEFDCFE1D
:04021800DDFC80EC9D
:01021C0022BF
:0C0220000A083F065B4F666D7D077F6F8C
:10009A00EF14B4080050549000AF75F003A4C58360
:1000AA0025F0C583730200C70200CB0200D3020009
:1000BA00D70200DF0200E30200EB0200EFD2A280C7
:1000CA0002C2A2D2A3D2A48022D2A28002C2A2C217
:1000DA00A3D2A48016D2A28002C2A2D2A3C2A480B2
:1000EA000AD2A28002C2A2C2A3C2A474082DF8E650
:0300FA00F580226C
:10001A000201A3E493A3F8E493A34003F68001F258
:10002A0008DFF48029E493A3F85407240CC8C333E7
:10003A00C4540F4420C8834004F456800146F6DFB6
:10004A00E4800B010204081020408090021DE47E27
:10005A00019360BCA3FF543F30E509541FFEE493AB
:10006A00A360010ECF54C025E060A840B8E493A372
:10007A00FAE493A3F8E493A3C8C582C8CAC583CA9D
:10008A00F0A3C8C582C8CAC583CADFE9DEE780BE55
:01022C0000D1
:1000FD00BC000BBE0029EF8DF084FFADF022E4CCE7
:10010D00F875F008EF2FFFEE33FEEC33FCEE9DECAF
:10011D00984005FCEE9DFE0FD5F0E9E4CEFD22EDF5
:10012D00F8F5F0EE8420D21CFEADF075F008EF2F3F
:10013D00FFED33FD4007985006D5F0F222C398FD30
:05014D000FD5F0EA22CD
:00000001FF
