:03000000020003F8
:0C000300787FE4F6D8FD75811102004AF8
:1000FC007D017F0112008F7D027F0212008F7D0334
:07010C007F0312008F80E960
:10011300EF1FAC0670011E4C600A7D027CEFDCFE13
:04012300DDFC80EC93
:0101270022B5
:0C0128000A083F065B4F666D7D077F6F85
:10008F00EF14B4080050549000A475F003A4C58376
:10009F0025F0C583730200BC0200C00200C8020035
:1000AF00CC0200D40200D80200E00200E4D2A28009
:1000BF0002C2A2D2A3D2A48022D2A28002C2A2C222
:1000CF00A3D2A48016D2A28002C2A2D2A3C2A480BD
:1000DF000AD2A28002C2A2C2A3C2A474082DF8E65B
:0D00EF00F5807F017E00120113E4F58022F0
:10000F000200FCE493A3F8E493A34003F68001F20B
:10001F0008DFF48029E493A3F85407240CC8C333F2
:10002F00C4540F4420C8834004F456800146F6DFC1
:10003F00E4800B0102040810204080900128E47E28
:10004F00019360BCA3FF543F30E509541FFEE493B6
:10005F00A360010ECF54C025E060A840B8E493A37D
:10006F00FAE493A3F8E493A3C8C582C8CAC583CAA8
:10007F00F0A3C8C582C8CAC583CADFE9DEE780BE60
:0101340000CA
:00000001FF
