:0300000002000EED
:0C000E00787FE4F6D8FD75812A020055C9
:1001BA00012500012600012700C1000221000002DA
:0301CA002300000F
:1001F300E4F51E12026E1202968F1E7E00EF64015A
:100203007002B2A0EF64024E7002B2A17D077F01BB
:100213001200037D087F021200037D097F03120091
:030223000380D382
:03000B0002009A56
:10009A00C0E0C0F0C083C082C0D075D000C000C02C
:0D00AA0001C002C003C004C005C006C007AD
:1000B700758CFC758A180522E52270020521052436
:1000C700E52470020523C3E522940AE521648094A0
:1000D70080400975210075220012017AC3E5249436
:1000E70001E523648094804009752300752400127C
:0200F7000226DF
:1000F900D007D006D005D004D003D002D001D0005B
:0B010900D0D0D082D083D0F0D0E03204
:10026E00438901758CFC758A18C28DD2AFD2A9C292
:04027E00B9D28C2243
:10028200438910758DFE758B0CC28FD2AFD2ABC273
:04029200BBD28E222B
:10025900EF1FAC0670011E4C600A7D027CEFDCFECC
:04026900DDFC80EC4C
:01026D00226E
:0901CD00012A00012800012900AB
:05029600E4AF2AF52A87
:01029B002240
:10024300E4FF20B1010F20B0027F0220B2027F033E
:0502530020B3027F044E
:010258002283
:10017A008529281202438F29AF287E00EF7009E5EE
:10018A002964017003752A01EF4E7009E52964029A
:10019A007003752A02E5287009E52964037003755E
:0F01AA002A03E5287009E52964047003752A0407
:0101B9002223
:1001D6000C123F065B4F666D7D077F6F0040090975
:0C01E600000A0A0A0A0A0A0A0A010801B3
:0700030074092FF8A6052285
:10011400E4F580EF14B40800505490012C75F003FA
:10012400A4C58325F0C5837302014402014802017A
:100134005002015402015C02016002016802016C78
:10014400D2A28002C2A2D2A3D2A48022D2A28002CE
:10015400C2A2C2A3D2A48016D2A28002C2A2D2A3F7
:10016400C2A4800AD2A28002C2A2C2A3C2A47412F0
:060174002DF8E6F58022E3
:1002260074092508F8E6FDAF081201140508C3E5B0
:0C0236000894097480948040037508014E
:010242002299
:10001A000201F3E493A3F8E493A34003F68001F208
:10002A0008DFF48029E493A3F85407240CC8C333E7
:10003A00C4540F4420C8834004F456800146F6DFB6
:10004A00E4800B01020408102040809001BAE47E8B
:10005A00019360BCA3FF543F30E509541FFEE493AB
:10006A00A360010ECF54C025E060A840B8E493A372
:10007A00FAE493A3F8E493A3C8C582C8CAC583CA9D
:10008A00F0A3C8C582C8CAC583CADFE9DEE780BE55
:0101F200000C
:00000001FF
