:0708DF0002090102010800FB
:1008C500758920758BF3758DF3E4F587759850D28E
:0A08D5008ED2AFD2ACC299C29822B5
:0300230002088C44
:10088C00C0E0C0D075D000C006C007309902C29934
:10089C0030981D85990BAF0B7E00EF6401700375CA
:1008AC0099F1EF64024E70037599F27590FEC2983F
:0908BC00D007D006D0D0D0E03204
:0508E7001208C580FEAF
:03000000020800F3
:0C080000787FE4F6D8FD75810B020847F4
:10080C000208E7E493A3F8E493A34003F68001F213
:10081C0008DFF48029E493A3F85407240CC8C333ED
:10082C00C4540F4420C8834004F456800146F6DFBC
:10083C00E4800B01020408102040809008DFE47E65
:10084C00019360BCA3FF543F30E509541FFEE493B1
:10085C00A360010ECF54C025E060A840B8E493A378
:10086C00FAE493A3F8E493A3C8C582C8CAC583CAA3
:10087C00F0A3C8C582C8CAC583CADFE9DEE780BE5B
:0108E6000011
:00000001FF
