:03000000020003F8
:0C000300787FE4F6D8FD75810802004A01
:03010C00010800E7
:10008F0075A0FE20B3317F147E001200F730B3FD50
:10009F007F147E001200F70508C3E50894087480EA
:1000AF0094804003E4F508AF08A8077401088002A4
:1000BF00C333D8FCF4F5A020B2C97F147E00120020
:1000CF00F730B2FD7F147E001200F7E5087005755A
:1000DF00080780021508AF08A8077401088002C33B
:0800EF0033D8FCF4F5A0809B5E
:1000F700EF1FAC0670011E4C600A7D027CEFDCFE30
:04010700DDFC80ECAF
:01010B0022D1
:10000F0002008FE493A3F8E493A34003F68001F278
:10001F0008DFF48029E493A3F85407240CC8C333F2
:10002F00C4540F4420C8834004F456800146F6DFC1
:10003F00E4800B010204081020408090010CE47E44
:10004F00019360BCA3FF543F30E509541FFEE493B6
:10005F00A360010ECF54C025E060A840B8E493A37D
:10006F00FAE493A3F8E493A3C8C582C8CAC583CAA8
:10007F00F0A3C8C582C8CAC583CADFE9DEE780BE60
:01010F0000EF
:00000001FF
