:0300000002032FC9
:0C032F00787FE4F6D8FD758121020117EB
:0F03110041494E302041494E312041494E320082
:100117001202FD7BFF7A0379117D017F01120289AB
:100127007F9C120097AA06AB07750C047D017F021E
:100137001202657FDC120097AA06AB07750C047DD7
:10014700067F021202657FAC120097AA06AB0775FD
:0B0157000C047D0B7F0212026580C5C6
:1002E800EF1FAC0670011E4C600A7D027CEFDCFE3D
:0402F800DDFC80ECBD
:0102FC0022DF
:06032000C2A58F80D2A7E8
:080326007F027EEFDEFEDFFC2A
:01032E0022AC
:0A033B00C2A6120320C2A702032687
:1002AC00CFCDCFCECCCE1200427C007D0A120042C4
:0402BC00ED2430FFFE
:0A02C000D2A6120320C2A7020326F3
:1002CA00AE07EEFB7A0064017004ED148009EB645A
:0E02DA00024A7009ED243F4480FF12033B22CC
:1002FD007F3812033B7F0C12033B7F0612033B7FBB
:04030D000102033BAB
:0A034500AC031202CAAF040202C0AA
:060289008B088A09890AB6
:10028F001202CAE4FDAB08AA09A90A8D8275830080
:0C029F00120003FF60061202C00D80E98F
:0102AB002230
:0A023400EF24FFFDEE34FFFC7F0A0B
:08023E008E0D8F0E8C0F8D1048
:100246007F017E00E4FBEBC39510E50F6480F87434
:0E0256008098500AAC0DAD0E1200300B80E8FF
:010264002277
:040265008A0A8B0B6B
:100269001202CAAA0CEAFF7E00D39400748094801B
:0F027900400D120234AC0AAD0B1202AC1A80E633
:010288002253
:0401AD008B828A8334
:1001B1001202CAC3E58364809480400D7F2B120232
:1001C100C085831685821780107F2D1202C0C3E47B
:1001D1009582F517E49583F516AA15EAFF7E00D3FB
:1001E100940074809480400D120234AC16AD171245
:0501F10002AC1A80E6DB
:0101F60022E6
:040162008A1A8B1B4F
:100166001202CAAA1CEAD39400748094804037EA2B
:1001760024FFFDE434FFFC7F107E0012023EAC1A21
:10018600AD1BCFCDCFCECCCE120042EF540FFEC367
:10019600940A74809480EE5004243080022437FF41
:0601A6001202C01A80BF26
:0101AC002230
:0401F7008A1F8B20B0
:1001FB001202CAAA21EAFF7E00D394007480948075
:10020B004026EF24FFFDEE34FFFC7F0212023EACD2
:10021B001FAD20CFCDCFCECCCE120042EF54012458
:08022B0030FF1202C01A80CD61
:0102330022A8
:02009700AD07B3
:10009900E4F508F509C2B5C2B6FBEBC39408748050
:1000A900948050237E007480A803088006CEA2E7BE
:1000B90013CE13D8F8FFEDF582EF558224FF92B4E1
:1000C900D2B6C2B60B80D3E4FBEBC3941074809410
:1000D90080501ED2B6C2B630B7147E80E4A8030899
:1000E9008005CEC313CE13D8F94209EE42080B801E
:1000F900D8D2B5ED30E306E508FF7E0022E508C455
:0D010900F854F0C868FEE509C4540F48FF23
:0101160022C6
:10000300BB010CE58229F582E5833AF583E02250B2
:1000130006E92582F8E622BBFE06E92582F8E222FC
:0D002300E58229F582E5833AF583E4932216
:10003000EF8DF0A4A8F0CF8CF0A428CE8DF0A42EE4
:02004000FE229E
:10004200BC000BBE0029EF8DF084FFADF022E4CCA2
:10005200F875F008EF2FFFEE33FEEC33FCEE9DEC6B
:10006200984005FCEE9DFE0FD5F0E9E4CEFD22EDB1
:10007200F8F5F0EE8420D21CFEADF075F008EF2FFB
:10008200FFED33FD4007985006D5F0F222C398FDEC
:050092000FD5F0EA2289
:00000001FF
