:03000000020003F8
:0C000300787FE4F6D8FD75811302004AF6
:0C0139000A083F065B4F666D7D077F6F74
:10008F00EF14B4080050549000A475F003A4C58376
:10009F0025F0C583730200BC0200C00200C8020035
:1000AF00CC0200D40200D80200E00200E4D2A28009
:1000BF0002C2A2D2A3D2A48022D2A28002C2A2C222
:1000CF00A3D2A48016D2A28002C2A2D2A3C2A480BD
:1000DF000AD2A28002C2A2C2A3C2A474082DF8E65B
:0300EF00F5802277
:1000F200751201C3E51294097480948050F2E4F5FC
:1001020013C3E513940A748094805012AD13AF1296
:1001120012008F7FF47E01120124051380E3051281
:0201220080D18A
:10012400EF1FAC0670011E4C600A7D027CEFDCFE02
:04013400DDFC80EC82
:0101380022A4
:10000F000200F2E493A3F8E493A34003F68001F215
:10001F0008DFF48029E493A3F85407240CC8C333F2
:10002F00C4540F4420C8834004F456800146F6DFC1
:10003F00E4800B0102040810204080900139E47E17
:10004F00019360BCA3FF543F30E509541FFEE493B6
:10005F00A360010ECF54C025E060A840B8E493A37D
:10006F00FAE493A3F8E493A3C8C582C8CAC583CAA8
:10007F00F0A3C8C582C8CAC583CADFE9DEE780BE60
:0101450000B9
:00000001FF
