:03000600010800EE
:0E00F60000007F017ED87D23DDFEDEFCDFFAF8
:0101040022D8
:0300030002000EEA
:03000E00050832B0
:03001300020016D2
:03001600050832A8
:03000B000200D51B
:1000D500C0D075D000C005C006C007758C3C758AB8
:1000E500B0B2A705081200F6D007D006D005D0D0CB
:0100F50032D8
:03001B00020105DA
:0B010500758C3C758AB0B2A105083271
:1000AA00C2A775880575A88575B805758901758C07
:1000BA003C758AB043881043A8024389104388409C
:0B00CA00758C3C758AB043A80880FECE
:0300000002001EDD
:0C001E00787FE4F6D8FD758108020065CB
:10002A000200AAE493A3F8E493A34003F68001F242
:10003A0008DFF48029E493A3F85407240CC8C333D7
:10004A00C4540F4420C8834004F456800146F6DFA6
:10005A00E4800B0102040810204080900006E47E30
:10006A00019360BCA3FF543F30E509541FFEE4939B
:10007A00A360010ECF54C025E060A840B8E493A362
:10008A00FAE493A3F8E493A3C8C582C8CAC583CA8D
:10009A00F0A3C8C582C8CAC583CADFE9DEE780BE45
:0100090000F6
:00000001FF
