:030000000202D227
:0C02D200787FE4F6D8FD7581280203193E
:1005AD0020202D20202D20200020203A20203A2010
:0605BD00200057656B00F1
:100199001205D81206197BFF7A0579AD7D017F0119
:1001A90012054E7BFF7A0579B67D017F0212054E55
:1001B9007BFF7A0579BF7D0C7F0212054E12000381
:1001C900120245E518FB3395E0FA750C027D017FB3
:1001D9000112052AE519FB3395E0FA750C027D0435
:1001E9007F0112052AE51AFB3395E0FA750C027DA9
:1001F900077F0112052AE51BFB3395E0FA750C020E
:100209007D017F0212052AE51CFB3395E0FA750C86
:10021900027D047F0212052AE51DFB3395E0FA757C
:100229000C027D077F0212052AE51EFB3395E0FAD1
:0C023900750C017D0F7F0212052A8084E5
:1005C300EF1FAC0670011E4C600A7D027CEFDCFE5F
:0405D300DDFC80ECDF
:0105D7002201
:0605EC00C2A58F80D2A71A
:0805F2007F027EEFDEFEDFFC5C
:0105FA0022DE
:0A05FB00C2A61205ECC2A70205F229
:10057100CFCDCFCECCCE1201447C007D0A120144F6
:04058100ED2430FF36
:0A058500D2A61205ECC2A70205F28F
:10058F00AE07EEFB7A0064017004ED148009EB6492
:0E059F00024A7009ED243F4480FF1205FB2242
:1005D8007F381205FB7F0C1205FB7F061205FB7F97
:0405E800010205FB0C
:0A060500AC0312058FAF0402058557
:06054E008B088A09890AEE
:1005540012058FE4FDAB08AA09A90A8D82758300F0
:0C056400120105FF60061205850D80E9FC
:010570002268
:0A04F900EF24FFFDEE34FFFC7F0A44
:080503008E0D8F0E8C0F8D1080
:10050B007F017E00E4FBEBC39510E50F6480F8746C
:0E051B008098500AAC0DAD0E1201320B80E834
:0105290022AF
:04052A008A0A8B0BA3
:10052E0012058FAA0CEAFF7E00D39400748094808B
:0F053E00400D1204F9AC0AAD0B1205711A80E6DC
:01054D00228B
:040472008B828A836C
:1004760012058FC3E58364809480400D7F2B12059F
:100486008585831685821780107F2D120585C3E426
:100496009582F517E49583F516AA15EAFF7E00D333
:1004A600940074809480400D1204F9AC16AD1712B6
:0504B60005711A80E64B
:0104BB00221E
:040427008A218B2279
:10042B0012058FAA23EAD39400748094804037EA94
:10043B0024FFFDE434FFFC7F107E00120503AC218A
:10044B00AD22CFCDCFCECCCE120144EF540FFEC395
:10045B00940A74809480EE5004243080022437FF79
:06046B001205851A80BF96
:010471002268
:0404BC008A268B27DA
:1004C00012058FAA28EAFF7E00D3940074809480DE
:1004D0004026EF24FFFDEE34FFFC7F02120503AC43
:1004E00026AD27CFCDCFCECCCE120144EF54012480
:0804F00030FF1205851A80CDD2
:0104F80022E1
:09060F00071815080A0B2E32022F
:07061900C2B5C2B6C2B42253
:02035E00A907ED
:10036000D2B5E4FBEBC394087480948050227E00E5
:100370007401A803088005C333CE33CED8F9FFE952
:10038000F582EF558224FF92B4D2B6C2B60B80D468
:10039000E4FBEBC394087480948050227E007401C7
:1003A000A803088005C333CE33CED8F9FFEDF5821C
:1003B000EF558224FF92B4D2B6C2B60B80D4C2B538
:0403C000C2B4C2B64B
:0103C4002216
:0203C500AD0782
:1003C700E4F9430501D2B5FBEBC39408748094802C
:1003D70050227E007401A803088005C333CE33CEB4
:1003E700D8F9FFEDF582EF558224FF92B4C2B6D259
:1003F700B60B80D4E4FBEBC3940874809480501749
:10040700D2B6C2B630B40DA8037401088002C33354
:0F041700D8FC42010B80DFC2B5C2B4C2B6AF0140
:0104260022B3
:10000300E4FD7F8E12035EE51875F00A1200E3C467
:1000130054F0FFE51875F00A1200E3AEF0EF2EFD81
:100023007F8C12035EE51975F00A1200E3C454F0E5
:10003300FFE51975F00A1200E3AEF0EF2EFD7F889D
:1000430012035EE51A75F00A1200E3C454F0FFE5EB
:100053001A75F00A1200E3AEF0EF2EFD7F8612034D
:100063005EE51B75F00A1200E3C454F0FFE51B754F
:10007300F00A1200E3AEF0EF2EFD7F8412035EE57B
:100083001C75F00A1200E3C454F0FFE51C75F00A76
:100093001200E3AEF0EF2EFD7F8212035EE51D75C5
:1000A300F00A1200E3C454F0FFE51D75F00A1200D4
:1000B300E3AEF0EF2EFD7F8012035EE51E75F00ABE
:1000C3001200E3C454F0FFE51E75F00A1200E3AE1C
:1000D300F0EF2EFD7F8A12035E7D807F8E02035E2A
:100245007F8C1203C5EFC4540F75F00AA4FEEF545A
:100255000F2EF5187F881203C5EFC4540F75F00AE9
:10026500A4FEEF540F2EF5197F861203C5EFC45473
:100275000F75F00AA4FEEF540F2EF51A7F841203B2
:10028500C5EFC4540F75F00AA4FEEF540F2EF51BED
:100295007F821203C5EFC4540F75F00AA4FEEF5414
:1002A5000F2EF51C7F801203C5EFC4540F75F00A9D
:1002B500A4FEEF540F2EF51D7F8A1203C5EFC4541B
:0C02C5000F75F00AA4FEEF540F2EF51E7A
:0102D100220A
:1002DE00020199E493A3F8E493A34003F68001F29C
:1002EE0008DFF48029E493A3F85407240CC8C33321
:1002FE00C4540F4420C8834004F456800146F6DFF0
:10030E00E4800B010204081020408090060FE47E6A
:10031E00019360BCA3FF543F30E509541FFEE493E4
:10032E00A360010ECF54C025E060A840B8E493A3AB
:10033E00FAE493A3F8E493A3C8C582C8CAC583CAD6
:10034E00F0A3C8C582C8CAC583CADFE9DEE780BE8E
:0106180000E1
:1000E300C2D530F707B2D563F0FF05F030E70CB2A5
:1000F300D5F4048463F0FF05F080018430D502F465
:020103000422D4
:10010500BB010CE58229F582E5833AF583E02250AF
:1001150006E92582F8E622BBFE06E92582F8E222F9
:0D012500E58229F582E5833AF583E4932213
:10013200EF8DF0A4A8F0CF8CF0A428CE8DF0A42EE1
:02014200FE229B
:10014400BC000BBE0029EF8DF084FFADF022E4CC9F
:10015400F875F008EF2FFFEE33FEEC33FCEE9DEC68
:10016400984005FCEE9DFE0FD5F0E9E4CEFD22EDAE
:10017400F8F5F0EE8420D21CFEADF075F008EF2FF8
:10018400FFED33FD4007985006D5F0F222C398FDE9
:050194000FD5F0EA2286
:00000001FF
