:0300000002039D5B
:0C039D00787FE4F6D8FD7581280202602C
:1002600075080112036D7D597F011202FA7F057E28
:10027000001203587F011201CA8F08E508FB33956D
:0E028000E0FA750D027D017F011202B380EDE0
:10035800EF1FAC0670011E4C600A7D027CEFDCFECC
:04036800DDFC80EC4C
:01036C00226E
:10009700E4F51E20B1137F14FE12035830B1FD7F23
:1000A700147E00120358751E0120B0147F147E00C1
:1000B70012035830B0FD7F147E00120358751E02DC
:1000C70020B2147F147E0012035830B2FD7F147ED5
:1000D70000120358751E0320B3147F147E00120309
:1000E7005830B3FD7F147E00120358751E04AF1EEF
:0100F70022E6
:06038100C2A58F80D2A787
:080387007F027EEFDEFEDFFCC9
:01038F00224B
:0A03A900C2A6120381C2A702038757
:10031C00CFCDCFCECCCE1200427C007D0A12004253
:04032C00ED2430FF8D
:0A033000D2A6120381C2A7020387C0
:10033A00AE07EEFB7A0064017004ED148009EB64E9
:0E034A00024A7009ED243F4480FF1203A922ED
:10036D007F381203A97F0C1203A97F061203A97F00
:04037D00010203A9CD
:0A03B300AC0312033AAF040203305A
:0602D7008B268A2789280E
:1002DD0012033AE4FDAB26AA27A9288D8275830067
:0C02ED00120003FF60061203300D80E9D0
:0102F90022E2
:0A022F00EF24FFFDEE34FFFC7F0A10
:080239008E0E8F0F8C108D1149
:100241007F017E00E4FBEBC39511E5106480F87437
:0E0251008098500AAC0EAD0F1200300B80E802
:01025F00227C
:0402B3008A0B8B0C1B
:1002B70012033AAA0DEAFF7E00D39400748094805B
:0F02C700400D12022FAC0BAD0C12031C1A80E677
:0102D6002205
:040143008B828A839E
:1001470012033AC3E58364809480400D7F2B12032A
:100157003085831785821880107F2D120330C3E402
:100167009582F518E49583F517AA16EAFF7E00D362
:10017700940074809480400D12022FAC17AD1812B2
:05018700031C1A80E6D4
:01018C002250
:0400F8008A1B8B1CB8
:1000FC0012033AAA1DEAD39400748094804037EA24
:10010C0024FFFDE434FFFC7F107E00120239AC1B8F
:10011C00AD1CCFCDCFCECCCE120042EF540FFEC3D0
:10012C00940A74809480EE5004243080022437FFAB
:06013C001203301A80BF1F
:01014200229A
:04018D008A238B2412
:1001910012033AAA25EAFF7E00D39400748094806A
:1001A1004026EF24FFFDEE34FFFC7F02120239AC42
:1001B10023AD24CFCDCFCECCCE120042EF540124BB
:0801C10030FF1203301A80CD5B
:0101C9002213
:0903BD00D2A1D2A0C2A0C2A1226B
:0703CF00C2A0D2A1D2A022BE
:0201FD00AD074C
:1001FF00E4FBEBC394087480948050237E007480DA
:10020F00A803088006CEA2E713CE13D8F8FFEDF5AA
:0F021F0082EF558224FF92A0D2A1C2A10B80D3FF
:01022E0022AD
:10028E00E4FFFEEEC39408748094805017D2A13020
:10029E00A00DA8067480088002C313D8FC4207C2C2
:0402AE00A10E80DF3E
:0102B2002229
:0903C600A20092A0D2A1C2A12262
:0C039000D2A0D2A1A2A09200C2A1A200A3
:01039C00223E
:1002FA008F098D0A1203BD7FA01201FD120390AF70
:10030A00091201FD120390AF0A1201FD12039002B5
:02031A0003CF0F
:0201CA008F099B
:1001CC00E4F50A1203BD7FA01201FD120390AF09E2
:1001DC001201FD1203901203BD7FA11201FD120347
:1001EC009012028E8F0AD2001203C61203CFAF0AEE
:0101FC0022E0
:10000300BB010CE58229F582E5833AF583E02250B2
:1000130006E92582F8E622BBFE06E92582F8E222FC
:0D002300E58229F582E5833AF583E4932216
:10003000EF8DF0A4A8F0CF8CF0A428CE8DF0A42EE4
:02004000FE229E
:10004200BC000BBE0029EF8DF084FFADF022E4CCA2
:10005200F875F008EF2FFFEE33FEEC33FCEE9DEC6B
:10006200984005FCEE9DFE0FD5F0E9E4CEFD22EDB1
:10007200F8F5F0EE8420D21CFEADF075F008EF2FFB
:10008200FFED33FD4007985006D5F0F222C398FDEC
:050092000FD5F0EA2289
:00000001FF
