:0300000002001EDD
:0C001E00787FE4F6D8FD75810B020065C8
:08000E0002080000020A0000D4
:080003001200FE12011280FE42
:1000FE00438901758CFC758A18C28DD2AFD2A9C204
:04010E00B9D28C22B4
:10011200438910758DFE758B0CC28FD2AFD2ABC2E4
:04012200BBD28E229C
:03000B000200AA46
:0400AA00C0E0C0D022
:1000AE00758CFC758A180509E50970020508C3945C
:1000BE00E8E508648094834008B2A07508007509CD
:0100CE000031
:0500CF00D0D0D0E032AA
:03001B000200D40C
:0400D400C0E0C0D0F8
:1000D800758DFE758B0C050BE50B7002050AC39434
:1000E800E8E50A648094834008B2A2750A00750B9B
:0100F8000007
:0500F900D0D0D0E03280
:10002A00020003E493A3F8E493A34003F68001F2E9
:10003A0008DFF48029E493A3F85407240CC8C333D7
:10004A00C4540F4420C8834004F456800146F6DFA6
:10005A00E4800B010204081020408090000EE47E28
:10006A00019360BCA3FF543F30E509541FFEE4939B
:10007A00A360010ECF54C025E060A840B8E493A362
:10008A00FAE493A3F8E493A3C8C582C8CAC583CA8D
:10009A00F0A3C8C582C8CAC583CADFE9DEE780BE45
:0100160000E9
:00000001FF
