:1000000002001E1200FE12011280FE0200AA020867
:070010000000020A000000DD
:10001B000200D4787FE4F6D8FD75810B02006502EF
:10002B000003E493A3F8E493A34003F68001F208E2
:10003B00DFF48029E493A3F85407240CC8C333C41A
:10004B00540F4420C8834004F456800146F6DFE485
:10005B00800B010204081020408090000EE47E010A
:10006B009360BCA3FF543F30E509541FFEE493A3F8
:10007B0060010ECF54C025E060A840B8E493A3FA0A
:10008B00E493A3F8E493A3C8C582C8CAC583CAF096
:10009B00A3C8C582C8CAC583CADFE9DEE780BEC074
:1000AB00E0C0D0758CFC758A180509E5097002054E
:1000BB0008C394E8E508648094834008B2A07508EF
:1000CB0000750900D0D0D0E032C0E0C0D0758DFEF5
:1000DB00758B0C050BE50B7002050AC394E8E50A5A
:1000EB00648094834008B2A2750A00750B00D0D0CF
:1000FB00D0E032438901758CFC758A18C28DD2AF62
:10010B00D2A9C2B9D28C22438910758DFE758B0C86
:0B011B00C28FD2AFD2ABC2BBD28E228B
:00000001FF
