:0300000002023BBE
:0C023B00787FE4F6D8FD75814E02028247
:1003C200012700012800012900012A00012B00C198
:0D03D20000022100000223000002250000AF
:1004B50030002E0527C3E52794647480948040217D
:1004C500E4F5270528E528943C748094804012E4DF
:1004D500F5280529E529943C748094804003E4F5CA
:0204E5002922CA
:10000E00E4F54C1206701206E18F4C7E00EF64018F
:10001E007002B200EF64024E700CC200F527F52894
:10002E00F529F52AF52BEF64034E7044E52A04FFFB
:10003E00AD271205B67F057E00120647E52A24027B
:10004E00FFAD281205B67F057E00120647E52A246D
:10005E0003FFAD291205B67F057E00120647740315
:10006E00252AF52AD3940C748094804003E4F52A53
:10007E00E54C6404702FE52B04FF1204828F27E5F4
:10008E002B2402FF1204828F28E52B2403FF120477
:10009E00828F297403252BF52BD3940C74809480B6
:1000AE004003E4F52BE52975F00A84FD7F01120665
:1000BE00DAE52975F00A84ADF07F021206DA7D0BBF
:1000CE007F031206DAE52875F00A84FD7F04120616
:1000DE00DAE52875F00A84ADF07F051206DA7D0B9D
:1000EE007F061206DAE52775F00A84FD7F071206F1
:1000FE00DAE52775F00A84ADF07F081206DA020001
:01010E0014DC
:03000B0002010FE0
:10010F00C0E0C0F0C083C082C0D075D000C000C0B6
:0D011F0001C002C003C004C005C006C00737
:10012C00758CFC758A180522E522700205210524C0
:10013C00E524700205230526E52670020525C3E596
:10014C00229414E521648094804009752100752265
:10015C0000120405C3E5249402E5236480948040D6
:10016C0009752300752400120614C3E526940AE5CC
:10017C00256480948040097525007526001204B50D
:10018C00D007D006D005D004D003D002D001D000C7
:0B019C00D0D0D082D083D0F0D0E03271
:10064700EF1FAC0670011E4C600A7D027CEFDCFEDA
:04065700DDFC80EC5A
:01065B00227C
:0903DF000148000146000147003D
:0506E100E4AF48F548FC
:0106E60022F1
:10063100E4FF20B1010F20B0027F0220B2027F034C
:0506410020B3027F045C
:010646002291
:100405008547461206318F47AF467E00EF7009E5F6
:100415004764017003754801EF4E7009E5476402B2
:100425007003754802E5467009E547640370037576
:0F0435004803E5467009E5476404700375480401
:010444002295
:06069800C2A58F80D2A76D
:08069E007F027EEFDEFEDFFCAF
:0106A6002231
:0A06B400C2A6120698C2A702069E15
:1005D800CFCDCFCECCCE1201E67C007D0A1201E64B
:0405E800ED2430FFCF
:0A05EC00D2A6120698C2A702069ECE
:1005F600AE07EEFB7A0064017004ED148009EB642B
:0E060600024A7009ED243F4480FF1206B42220
:10065C007F381206B47F0C1206B47F061206B47FE4
:04066C00010206B4CD
:0A06BE00AC031205F6AF040205ECD0
:060593008B498A4A894BE6
:100599001205F6E4FDAB49AA4AA94B8D8275830081
:0C05A9001201A7FF60061205EC0D80E9AE
:0105B5002223
:0A051900EF24FFFDEE34FFFC7F0A23
:080523008E428F438C448D458C
:10052B007F017E00E4FBEBC39545E5446480F874E2
:0E053B008098500AAC42AD431201D40B80E808
:01054900228F
:04056F008A358B3608
:100573001205F6AA37EAFF7E00D3940074809480B4
:0F058300400D120519AC35AD361205D81A80E6B9
:010592002246
:040378008B828A8367
:10037C001205F6C3E58364809480400D7F2B120533
:10038C00EC85833185823280107F2D1205ECC3E41D
:10039C009582F532E49583F531AA30EAFF7E00D3DD
:1003AC00940074809480400D120519AC31AD32125A
:0503BC0005D81A80E6DF
:0103C1002219
:04032D008A3A8B3B42
:100331001205F6AA3CEAD39400748094804037EA0F
:1003410024FFFDE434FFFC7F107E00120523AC3A4C
:10035100AD3BCFCDCFCECCCE1201E6EF540FFEC3D5
:10036100940A74809480EE5004243080022437FF74
:060371001205EC1A80BF2A
:010377002263
:040445008A3F8B401F
:100449001205F6AA41EAFF7E00D3940074809480D5
:100459004026EF24FFFDEE34FFFC7F02120523AC9A
:100469003FAD40CFCDCFCECCCE1201E6EF54012423
:0804790030FF1205EC1A80CDE2
:010481002258
:0906C800D2A1D2A0C2A0C2A1225D
:07000300C2A0D2A1D2A0228D
:0204E700AD075F
:1004E900E4FBEBC394087480948050237E007480ED
:1004F900A803088006CEA2E713CE13D8F8FFEDF5BE
:0F05090082EF558224FF92A0D2A1C2A10B80D312
:0105180022C0
:10054A00E4FFFEEEC39408748094805017D2A13061
:10055A00A00DA8067480088002C313D8FC4207C203
:04056A00A10E80DF7F
:01056E00226A
:0906D100A20192A0D2A1C2A12253
:0C06A700D2A0D2A1A2A09201C2A1A20187
:0106B3002224
:1005B6008F4D8D4E1206C87FA01204E71206A7AF14
:1005C6004D1204E71206A7AF4E1204E71206A70261
:0205D600000320
:020482008F4D9C
:10048400E4F54E1206C87FA01204E71206A7AF4D8A
:100494001204E71206A71206C87FA11204E7120687
:1004A400A712054A8F4ED2011206D1120003AF4E95
:0104B4002225
:10067000438901758CFC758A18C28DD2AFD2A9C28C
:04068000B9D28C223D
:10068400438910758DFE758B0CC28FD2AFD2ABC26D
:04069400BBD28E2225
:1003E8000C123F065B4F666D7D077F6F0040090961
:0C03F800000A0A0A0A0A0A0A0A0108019F
:0706DA0074092FF8A60522A8
:1002C700E4F580EF14B4080050549002DF75F00392
:1002D700A4C58325F0C583730202F70202FB02035C
:1002E7000302030702030F02031302031B02031F88
:1002F700D2A28002C2A2D2A3D2A48022D2A280021A
:10030700C2A2C2A3D2A48016D2A28002C2A2D2A342
:10031700C2A4800AD2A28002C2A2C2A3C2A474123B
:060327002DF8E6F580222E
:1006140074092508F8E6FDAF081202C70508C3E50A
:0C0624000894097480948040037508015C
:0106300022A7
:1002470002000EE493A3F8E493A34003F68001F2BF
:1002570008DFF48029E493A3F85407240CC8C333B8
:10026700C4540F4420C8834004F456800146F6DF87
:10027700E4800B01020408102040809003C2E47E52
:10028700019360BCA3FF543F30E509541FFEE4937C
:10029700A360010ECF54C025E060A840B8E493A343
:1002A700FAE493A3F8E493A3C8C582C8CAC583CA6E
:1002B700F0A3C8C582C8CAC583CADFE9DEE780BE26
:0104040000F7
:1001A700BB010CE58229F582E5833AF583E022500D
:1001B70006E92582F8E622BBFE06E92582F8E22257
:0D01C700E58229F582E5833AF583E4932271
:1001D400EF8DF0A4A8F0CF8CF0A428CE8DF0A42E3F
:0201E400FE22F9
:1001E600BC000BBE0029EF8DF084FFADF022E4CCFD
:1001F600F875F008EF2FFFEE33FEEC33FCEE9DECC6
:10020600984005FCEE9DFE0FD5F0E9E4CEFD22ED0B
:10021600F8F5F0EE8420D21CFEADF075F008EF2F55
:10022600FFED33FD4007985006D5F0F222C398FD46
:050236000FD5F0EA22E3
:00000001FF
