:100B6A00101E010203FB040506FD070809FA00D15D
:020B7A000DFB71
:0C0B5300C2A5C2A78D80D2A77FE87E0358
:0B0B5F00EF1FAC0670011E4C70F62268
:100B1900120B5F7F38120B2A7FF47E01120B5F7F65
:010B29003893
:0D0B2A00AD07120B5BC2A6120B53C2A7222F
:0D0B3700E47B0AFAF9F8120AD5EB2430FF2E
:0F0B4400AD07120B5BD2A6120B53C2A7C2A6229B
:100A85007FDC7E05120B197FF47E01120B197F089E
:100A9500120B2A7F01120B2A7F06120B2A7F0C12DA
:100AA5000B2AE4F50BF50CF509F508F510F50FF52E
:100AB5000EF50DF514F513F512F511F518F517F5F5
:100AC50016F515F51CF51BF51AF519F50AC2B72229
:100003007590FEAF90EF64FE70030200E0120B5B8D
:10001300AF90EF64FE6028E59054F0F50B249060F8
:100023001B24C0601224E0600924F07012E4F50C74
:10003300800D750C018008750C028003750C03AFED
:1000430090EF64FE70F9AF0CEF600964016005EF97
:1000530064027071E50970377F0AFEFDFCAB10AADC
:100063000FA90EA80D1208B8C004A905AA06AB076C
:10007300741E250CF8E6FFE4FCFDFED000EB2FF523
:1000830010EE3AF50FED39F50EEC38F50D8036E448
:100093007F0AFEFDFCAB14AA13A912A8111208B81B
:1000A300C004A905AA06AB07741E250CF8E6FFE4F5
:1000B300FCFDFED000EB2FF514EE3AF513ED39F508
:1000C30012EC38F511E50C64037006750901750827
:1000D30001741E250CF8E62430FF120B447590FDC5
:1000E300AF90EF64FD70030201BC120B5BAF90EFA6
:1000F30064FD6028E59054F0F50B2490601B24C048
:10010300601224E0600924F07012750C04800D75F0
:100113000C058008750C068003750C07AF90EF641F
:10012300FD70F9AF0CEF6404600AEF64056005EF3E
:1001330064067073E50970377F0AFEFDFCAB10AAF5
:100143000FA90EA80D1208B8C004A905AA06AB078B
:10015300741E250CF8E6FFE4FCFDFED000EB2FF542
:1001630010EE3AF50FED39F50EEC38F50D803EE45F
:100173007F0AFEFDFCAB14AA13A912A8111208B83A
:10018300C004A905AA06AB07741E250CF8E6FFE414
:10019300FCFDFED000EB2FF514EE3AF513ED39F527
:1001A30012EC38F5118006750901750802741E25D5
:1001B3000CF8E62430FF120B447590FBAF90EF640C
:1001C300FB7003020298120B5BAF90EF64FB602895
:1001D300E59054F0F50B2490601B24C0601224E0DA
:1001E300600924F07012750C08800D750C098008E5
:1001F300750C0A8003750C0BAF90EF64FB70F9AFBD
:100203000CEF6408600AEF64096005EF640A707319
:10021300E50970377F0AFEFDFCAB10AA0FA90EA8F3
:100223000D1208B8C004A905AA06AB07741E250C55
:10023300F8E6FFE4FCFDFED000EB2FF510EE3AF5F7
:100243000FED39F50EEC38F50D803EE47F0AFEFD27
:10025300FCAB14AA13A912A8111208B8C004A9056B
:10026300AA06AB07741E250CF8E6FFE4FCFDFED0DE
:1002730000EB2FF514EE3AF513ED39F512EC38F5E2
:10028300118006750901750803741E250CF8E62410
:1002930030FF120B447590F7AF90EF64F7700302D1
:1002A3000652120B5BAF90EF64F76028E59054F0B1
:1002B300F50B2490601B24C0601224E0600924F035
:1002C3007012750C0C800D750C0D8008750C0E806A
:1002D30003750C0FAF90EF64F770F9E50C24F3701E
:1002E3000302036F14700302038214700302037783
:1002F30024036003020652E50970377F0AFEFDFC02
:10030300AB10AA0FA90EA80D1208B8C004A905AA1C
:1003130006AB07741E250CF8E6FFE4FCFDFED000D7
:10032300EB2FF510EE3AF50FED39F50EEC38F50D30
:100333008036E47F0AFEFDFCAB14AA13A912A811B0
:100343001208B8C004A905AA06AB07741E250CF849
:10035300E6FFE4FCFDFED000EB2FF514EE3AF513B7
:10036300ED39F512EC38F5117F3080107F01120B57
:100373002A02063D7509017508047F2F020B44E527
:1003830008640170687FCF120B2A7F04120B2AE5E1
:10039300102514F518E50F3513F517E50E3512F58D
:1003A30016E50D3511F515AF18AE17AD16AC15ECF6
:1003B3004D4E4F601E120B37AF18AE17AD16AC156E
:1003C300E47B0AFAF9F8120AD58F188E178D168C6A
:1003D3001580D47F3D120B44E4F510F50FF50EF5AF
:1003E3000DF514F513F512F511F509F508E5086493
:1003F3000260030204AD7FCF120B2A7F04120B2A83
:10040300AF14AE13AD12AC11AB10AA0FA90EA80D09
:10041300D3120915401AE5109514F518E50F951335
:10042300F517E50E9512F516E50D9511F5158019DD
:10043300C3E5149510F518E513950FF517E5129517
:100443000EF516E511950DF515AF18AE17AD16ACF3
:1004530015EC4D4E4F601E120B37AF18AE17AD168D
:10046300AC15E47B0AFAF9F8120AD58F188E178DAA
:10047300168C1580D4AF14AE13AD12AC11AB10AA09
:100483000FA90EA80DC312091550057F2D120B4499
:100493007F3D120B44E4F510F50FF50EF50DF51441
:1004A300F513F512F511F509F508E5086403706510
:1004B3007FCF120B2A7F04120B2AAF14AE13AD1297
:1004C300AC11AB10AA0FA90EA80D1208B88022AF69
:1004D30018AE17AD16AC15EC4D4E4F601E120B3710
:1004E300AF18AE17AD16AC15E47B0AFAF9F8120A89
:1004F300D58F188E178D168C1580D47F3D120B4423
:10050300E4F510F50FF50EF50DF514F513F512F5E9
:1005130011F509F508E508640370657FCF120B2A0E
:100523007F04120B2AAF14AE13AD12AC11AB10AA99
:100533000FA90EA80D1208B88022AF18AE17AD167A
:10054300AC15EC4D4E4F601E120B37AF18AE17AD06
:1005530016AC15E47B0AFAF9F8120AD58F188E1730
:100563008D168C1580D47F3D120B44E4F510F50FE6
:10057300F50EF50DF514F513F512F511F509F5085A
:10058300E50864046003020652F51D7FCF120B2AAF
:100593007F04120B2AAF10AE0FAD0EAC0DEC120799
:1005A300F9C004C005C006C007AF14AE13AD12AC4A
:1005B30011EC1207F9A804A905AA06AB07D007D0C6
:1005C30006D005D00412075CE4FBFA797A7844126A
:1005D30006531208378F188E178D168C15AF18AE69
:1005E30017AD16AC15EC4D4E4F602E051D120B3793
:1005F300AF18AE17AD16AC15E47B0AFAF9F8120A78
:10060300D58F188E178D168C15E51D640370CE7F5C
:100613002E120B44E4F51D80C4AB14AA13A912A82F
:1006230011AF10AE0FAD0EAC0D120AD5EC33500561
:100633007F30120B447F3D120B44E4F510F50FF5A8
:100643000EF50DF514F513F512F511F509F508225C
:080B7D00120A8512000380FB3F
:10065300EC4D6011E8497017ED33EC3304600DE4A1
:10066300FCFFFEFD22E933E8330470F80208A3120D
:10067300086E58046009E4CC24815006285009020E
:1006830008AD2840030208AAC0E0EB4A7044B980D1
:1006930006D0E0FB020899EF4E701CBD8008EBFF0B
:1006A300EAFEE9FD80EBE98DF0A4FEE5F002073CEC
:1006B300E9CDF9EAFEEBFFEF89F0A4FCE5F0CE8982
:1006C300F0A42EFFE435F0CD89F0A42DFEE435F03F
:1006D3008067EF4E7005BD80D780C3EF8BF0A4AC6D
:1006E300F0EE8BF0A42CFCE435F0F8EF8AF0A42CA8
:1006F300E5F038FCE433CB8DF0A42CFCE5F03BF8BB
:10070300EE8AF0A42CFCE5F038F8E433CF89F0A4AA
:100713002CFCE5F038CF3400CE89F0A42FFFE5F0B0
:100723003EFEE433C98DF0A42EFEE5F039CD8AF008
:10073300A42FFFE5F03EFEE43DFD33D0E0FB500780
:100743000BBB000F0208ADEC2CFCEF33FFEE33FEC6
:06075300ED33FD020885F4
:100759000208ADEC5D046005E8590470030208A3C2
:1007690012086E580460F6EC4860F2EC7004FDFE65
:10077900FF22C860DB2481C85009C3986002500673
:100789000208AA9850CAF582E9294B4A7005AB823A
:1007990002089975F0007C1A7880C3EF9BEE9AEDF8
:1007A90099400DC3EF9BFFEE9AFEED99FDE842F0EB
:1007B900DC23ACF0D0E0FFD0E0FED0E0FDAB82203E
:1007C900E7101BEB60BAEC2CFCEF33FFEE33FEEDC8
:1007D90033FD020885E803F830E705C0F075F0003D
:1007E900EF2FFFEE33FEED33FD40B830E7C280AAAC
:1007F90075F020800E75F010800575F0087D007E7B
:10080900007F003392D530D503120907EC3340102D
:10081900EF33FFEE33FEED33FDEC33FCD5F0ED2283
:0E082900E5F0247EA2D513CC92E7CDCEFF22BF
:10083700EDD2E7CD33EC3392D524814006E4FFFEB9
:10084700FDFC22FCE4CFCECDCC24E0501174FF8018
:10085700EDC3CC13CCCD13CDCE13CECF13CF0470B5
:07086700F030D5DE020907A5
:10086E00E9D2E7C933E833F892D5EDD2E7CD33ECD0
:07087E0033FC5002B2D52249
:10088500EC30E7100FBF000C0EBE00080DBD0004D4
:100895000BEB6014A2D5EB13FCED92E7FD2274FF80
:1008A500FCFDFEFF22E480F8A2D574FF13FC7D80D9
:0308B500E480EFED
:030000000209F9F9
:0C09F900787FE4F6D8FD75812D020A40DD
:1008B800E88FF0A4CC8BF0A42CFCE98EF0A42CFCDF
:1008C8008AF0EDA42CFCEA8EF0A4CDA8F08BF0A45D
:1008D8002DCC3825F0FDE98FF0A42CCD35F0FCEBBC
:1008E8008EF0A4FEA9F0EB8FF0A4CFC5F02ECD3981
:0F08F800FEE43CFCEAA42DCE35F0FDE43CFC22EE
:100AD500C2D5E830E70FB2D5E4C39BFBE49AFAE44C
:100AE50099F9E498F8EC30E717B2D5120B0B120917
:100AF50067E4C39BFBE49AFAE499F9E498F8800368
:100B050012096730D50DE4C39FFFE49EFEE49DFD09
:040B1500E49CFC223E
:0E090700C3E49FFFE49EFEE49DFDE49CFC2201
:10091500EB9FF5F0EA9E42F0E99D42F0EC6480C859
:0609250064809845F022F9
:100A0500020B7DE493A3F8E493A34003F68001F27F
:100A150008DFF48029E493A3F85407240CC8C333F2
:100A2500C4540F4420C8834004F456800146F6DFC1
:100A3500E4800B0102040810204080900B6AE47EDC
:100A4500019360BCA3FF543F30E509541FFEE493B6
:100A5500A360010ECF54C025E060A840B8E493A37D
:100A6500FAE493A3F8E493A3C8C582C8CAC583CAA8
:100A7500F0A3C8C582C8CAC583CADFE9DEE780BE60
:010B7C000078
:10092B0075F008758200EF2FFFEE33FECD33CDCC83
:10093B0033CCC58233C5829BED9AEC99E582984006
:10094B000CF582EE9BFEED9AFDEC99FC0FD5F0D6E3
:10095B00E4CEFBE4CDFAE4CCF9A88222B800C1B90D
:10096B000059BA002DEC8BF084CFCECDFCE5F0CB4B
:10097B00F97818EF2FFFEE33FEED33FDEC33FCEB84
:10098B0033FB10D703994004EB99FB0FD8E5E4F93F
:10099B00FA227818EF2FFFEE33FEED33FDEC33FC2C
:1009AB00C933C910D7059BE99A4007EC9BFCE99A20
:1009BB00F90FD8E0E4C9FAE4CCFB2275F010EF2F65
:1009CB00FFEE33FEED33FDCC33CCC833C810D70765
:1009DB009BEC9AE899400AED9BFDEC9AFCE899F8A0
:0E09EB000FD5F0DAE4CDFBE4CCFAE4C8F92233
:00000001FF
