:020000040800F2
:10000000C0060020890100085D0800088B04000874
:1000100059080008C3020008C314000800000000CB
:10002000000000000000000000000000D50C0008E7
:10003000C7020008000000005F0B0008E90D00087F
:10004000A3010008A3010008A3010008A301000800
:10005000A3010008A3010008A3010008A3010008F0
:10006000A3010008A3010008A3010008A3010008E0
:10007000A3010008A3010008A3010008A3010008D0
:10008000A3010008A3010008A3010008A3010008C0
:10009000A3010008A3010008A3010008A3010008B0
:1000A000A3010008A3010008A3010008A3010008A0
:1000B000A3010008A301000800000000A30100083C
:1000C000A30100080000000000000000A3010008D8
:1000D00000000000A30100080D110008000000004E
:1000E000A3010008A3010008A301000800F002F822
:1000F00000F03AF80AA090E8000C82448344AAF188
:100100000107DA4501D100F02FF8AFF2090EBAE885
:100110000F0013F0010F18BFFB1A43F0010318473B
:10012000801F0000A01F0000103A24BF78C878C1CB
:10013000FAD8520724BF30C830C144BF04680C60ED
:10014000704700000023002400250026103A28BF35
:1001500078C1FBD8520728BF30C148BF0B60704739
:100160001FB51FBD10B510BD00F071F81146FFF7A7
:10017000F7FF01F047FA00F08FF803B4FFF7F2FF42
:1001800003BC00F097F80000094880470948004781
:10019000FEE7FEE7FEE7FEE7FEE7FEE7FEE7FEE737
:1001A000FEE7FEE704480549054A064B7047000094
:1001B000ED0D0008ED000008C0000020C006002082
:1001C000C0020020C00200204FF0013C50F8042B78
:1001D00051F8043B9A4221D1A2EB0C03934313EA5A
:1001E000CC1317D150F8042B51F8043B9A4215D187
:1001F000A2EB0C03934313EACC130BD150F8042B5E
:1002000051F8043B9A4209D1A2EB0C03934313EA41
:10021000CC13DBD04FF00000704700BFD01A01BAFA
:10022000B1FA81F101F0180122FA01F0CB40C1F1DD
:100230002001DBB2C0B2C01A2CFA01F3D11A9143EB
:1002400011EAC311E6D17047704770477047754691
:1002500000F02CF8AE4605006946534620F0070032
:10026000854618B020B5FFF79DFFBDE820404FF050
:1002700000064FF000074FF000084FF0000B21F090
:100280000701AC46ACE8C009ACE8C009ACE8C0095D
:10029000ACE8C0098D46704710B50446AFF3008046
:1002A0002046BDE81040FFF768BF000000487047D7
:1002B0005C00002001491820ABBEFEE726000200CA
:1002C000704700BFFEE770472DE9F0410246002568
:1002D0000026002000230024002791F803C00CF022
:1002E0000F0591F803C00CF0100CBCF1000F03D007
:1002F00091F802C04CEA050591F800C0BCF1000F6E
:1003000031D0146800202BE04FF0010C0CFA00F300
:10031000B1F800C00CEA03069E4220D183004FF0E2
:100320000F0C0CFA03F7BC4305FA03FC4CEA040477
:1003300091F803C0BCF1280F06D14FF0010C0CFA64
:1003400000FCC2F814C00AE091F803C0BCF1480FE9
:1003500005D14FF0010C0CFA00FCC2F810C0401C93
:100360000828D1D31460B1F800C0BCF1FF0F34DD10
:10037000546800202EE000F1080C4FF0010808FA44
:100380000CF3B1F800C00CEA03069E4221D18300B1
:100390004FF00F0C0CFA03F7BC4305FA03FC4CEAD0
:1003A000040491F803C0BCF1280F05D100F1080C3A
:1003B00008FA0CF8C2F8148091F803C0BCF1480F99
:1003C00007D100F1080C4FF0010808FA0CF8C2F848
:1003D0001080401C0828CED35460BDE8F081000096
:1003E000F0B50A46002300240021002500F0004655
:1003F000B6F1004F02D11D4EF16901E01B4E71684C
:10040000C0F3034583B200F44016B6F5401F08D18F
:1004100021F07061154E766826F07066134F7E608D
:1004200012E000F48016B6F5801F06D1032606FA06
:1004300005F4A14341F0706106E0460D360103FA70
:1004400006F6B14341F0706122B1460D360103FA60
:1004500006F6314300F00046B6F1004F02D1034EDC
:10046000F16101E0014E7160F0BD0000000001404B
:100470000246002093680B400BB1012000E00020F1
:100480007047416170470161704700BFFEE700009F
:1004900008B50121042000F083FB6020ADF80000C6
:1004A00010208DF8030003208DF8020069460448EF
:1004B000FFF70AFF60210248FFF7E5FF08BD0000D3
:1004C0000008014010B520210748FFF7DCFF40215C
:1004D0000548FFF7D8FF40210348FFF7D2FF20214E
:1004E0000148FFF7CEFF10BD0008014010B52021E4
:1004F0000548FFF7C8FF40210348FFF7C2FF40212E
:100500000148FFF7C0FF10BD0008014010B52021D1
:100510000348FFF7B8FF20210148FFF7B2FF10BDE5
:100520000008014010B5632400F0C4FB4FF4004103
:10053000AB48FFF7A6FF4021AA48FFF799FF68B92B
:10054000142001F039F800BF4021A648FFF790FFC2
:100550000028F9D0142001F02FF801248021A148AF
:10056000FFF786FF68B9142001F026F800BF80214C
:100570009C48FFF77DFF0028F9D0142001F01CF8FB
:1005800002244FF480719748FFF772FF70B914206E
:1005900001F012F800BF4FF480719248FFF768FF36
:1005A0000028F8D0142001F007F803244FF400715C
:1005B0008C48FFF75DFF70B9142000F0FDFF00BF0D
:1005C0004FF400718748FFF753FF0028F8D014203C
:1005D00000F0F2FF0A2400F06DFB08218148FFF7CC
:1005E00050FF40217F48FFF743FF68B9142000F017
:1005F000E3FF00BF40217B48FFF73AFF0028F9D016
:10060000142000F0D9FF042480217648FFF730FF42
:1006100068B9142000F0D0FF00BF80217148FFF7B7
:1006200027FF0028F9D0142000F0C6FF05244FF45E
:1006300080716C48FFF71CFF70B9142000F0BCFFFC
:1006400000BF4FF480716748FFF712FF0028F8D011
:10065000142000F0B1FF06244FF400716148FFF749
:1006600007FF70B9142000F0A7FF00BF4FF400711E
:100670005C48FFF7FDFE0028F8D0142000F09CFF36
:100680000B2400F017FB10215648FFF7FAFE40211B
:100690005448FFF7EDFE68B9142000F08DFF00BF4D
:1006A00040215048FFF7E4FE0028F9D0142000F064
:1006B00083FF072480214B48FFF7DAFE68B9142036
:1006C00000F07AFF00BF80214648FFF7D1FE0028E6
:1006D000F9D0142000F070FF08244FF480714148D5
:1006E000FFF7C6FE70B9142000F066FF00BF4FF49C
:1006F00080713C48FFF7BCFE0028F8D0142000F0C1
:100700005BFF09244FF400713648FFF7B1FE70B962
:10071000142000F051FF00BF4FF400713148FFF783
:10072000A7FE0028F8D0142000F046FF0C2400F0AB
:10073000C1FA20212B48FFF7A4FE40212948FFF7EA
:1007400097FE68B9142000F037FF00BF402125480C
:10075000FFF78EFE0028F9D0142000F02DFF0E24A4
:1007600080212048FFF784FE68B9142000F024FFA0
:1007700000BF80211B48FFF77BFE0028F9D0142022
:1007800000F01AFF00244FF480711648FFF770FE46
:1007900070B9142000F010FF00BF4FF480711148B1
:1007A000FFF766FE0028F8D0142000F005FF0F24A4
:1007B0004FF400710B48FFF75BFE70B9142000F096
:1007C000FBFE00BF4FF400710648FFF751FE002802
:1007D000F8D0142000F0F0FE0D24204610BD0000DB
:1007E00000080140000C014008B510208DF80300FE
:1007F0003820ADF8000003208DF802006946144847
:10080000FFF762FD38211248FFF73DFE10208DF8FA
:100810000300C002ADF8000003208DF80200694615
:100820000C48FFF751FD4FF400410A48FFF72BFE3B
:1008300048208DF803004FF47070ADF800000320DD
:100840008DF8020069460248FFF73EFD08BD000032
:10085000000C01400008014000BFFEE770470000A7
:1008600070B5002100230F22C47804B3154C24680E
:1008700004F4E064C4F5E064210AC1F10403CA4051
:10088000447804FA03F184781440214309010E4CA2
:100890000678A155047804F01F050124AC400578C2
:1008A0006D11AD0005F1E025C5F8004109E00478BF
:1008B00004F01F050124AC40044D0678761145F87C
:1008C000264070BD0CED00E000E400E080E100E0B7
:1008D00002490143024A1160704700000000FA0516
:1008E0000CED00E070B5002419E004F1B001C8B2CD
:1008F000002100F028F90021084600F024F9002129
:10090000102000F020F9002505E00121002000F072
:100910001AF9681CC5B2802DF7DB601CC4B2082C24
:10092000E3DB70BD10B500218D2000F00CF9002133
:10093000102000F008F90021AE2000F004F910BDED
:1009400010B500218D2000F0FEF80021142000F0E9
:10095000FAF80021AF2000F0F6F810BD10B5FFF74F
:1009600097FD0021AE2000F0EEF80021084600F0CF
:10097000EAF80021102000F0E6F80021402000F005
:10098000E2F80021B02000F0DEF80021812000F024
:10099000DAF80021FF2000F0D6F80021A12000F0B5
:1009A000D2F80021A62000F0CEF80021A82000F007
:1009B000CAF800213F2000F0C6F80021C82000F04E
:1009C000C2F80021D32000F0BEF80021084600F054
:1009D000BAF80021D52000F0B6F80021802000F000
:1009E000B2F80021D82000F0AEF80021052000F078
:1009F000AAF80021D92000F0A6F80021F12000F08B
:100A0000A2F80021DA2000F09EF80021122000F068
:100A10009AF80021DB2000F096F80021302000F049
:100A200092F800218D2000F08EF80021142000F0B3
:100A30008AF80021AF2000F086F810BD70B504469A
:100A40000D4605F1B001C8B2002100F07CF810217C
:100A500041EA1410002100F076F804F00F000021A4
:100A600000F071F870BD00002DE9F04707460E4612
:100A70009046994600250024A8F12000C5B27F2F9A
:100A800002DD0027B01CC6B2B9F1100F24D13146E7
:100A90003846FFF7D3FF002408E004EB0511194A9C
:100AA000505C012100F04FF8601CC4B2082CF4DB4C
:100AB000701CC1B23846FFF7C1FF002409E004EB07
:100AC000051108310F4A505C012100F03CF8601C10
:100AD000C4B2082CF3DB12E031463846FFF7AEFF14
:100AE00000240AE005EB4501074A02EB4101085DDD
:100AF000012100F028F8601CC4B2062CF2DBBDE82E
:100B0000F0870000741A00084C1800082DE9F04125
:100B100004460F461546984600260FE0AA5D434658
:100B200039462046FFF7A0FF04F10800C4B2782C34
:100B300002DD0024B81CC7B2701CC6B2A85D002834
:100B4000ECD1BDE8F08170B505460C461CB12846D5
:100B500000F0FAFC02E0284600F0E0FC70BD7047AF
:100B600029B1064AD2690243044BDA6104E0034A20
:100B7000D2698243014BDA617047000000100240E5
:100B800029B1064A12690243044B1A6104E0034A80
:100B900012698243014B1A61704700000010024045
:100BA00029B1064A92690243044B9A6104E0034A60
:100BB00092698243014B9A61704700000010024025
:100BC00029B1064AD2680243044BDA6004E0034AC2
:100BD000D2688243014BDA60704700000010024087
:100BE00030B500210022002400232D4D6D6805F052
:100BF0000C0121B1042905D0082923D105E0294D94
:100C0000056022E0274D05601FE0254D6D6805F465
:100C10007012234D6D6805F48034022505EB924275
:100C20001CB9214D554305600BE01D4D6D6805F461
:100C300000351DB11C4D5543056002E0194D55436B
:100C4000056002E0174D056000BF00BF144D6D68E0
:100C500005F0F0010909154D6B5C0568DD40456044
:100C60000F4D6D6805F4E061090A104D6B5C456835
:100C7000DD4085600A4D6D6805F46051C90A0B4D71
:100C80006B5C4568DD40C560054D6D6805F440410D
:100C9000890B074D6B5CC568B5FBF3F5056130BD8D
:100CA0000010024000127A0000093D0014000020EC
:100CB0002400002010B538210448FFF7E4FB4FF46E
:100CC00000410348FFF7DFFB10BD0000000C0140AE
:100CD00000080140704710B500F002F810BD000098
:100CE0000CB50020019000903348006840F480303B
:100CF0003149086000BF3048006800F400300090BF
:100D00000198401C0190009818B90198B0F5A06FA7
:100D1000F1D12948006800F4003010B101200090A2
:100D200001E0002000900098012843D1234800688A
:100D300040F01000214908600846006820F00300D8
:100D400008600846006840F0020008601A484068E1
:100D5000194948600846406848600846406840F4C1
:100D6000806048600846406820F47C10486008466F
:100D7000406840F4E81048600846006840F0807021
:100D8000086000BF0C48006800F000700028F9D02F
:100D90000948406820F00300074948600846406859
:100DA00040F00200486000BF0348406800F00C00BB
:100DB0000828F9D10CBD00000010024000200240BC
:100DC000042808D14FF0E021096941F004014FF0F7
:100DD000E022116107E04FF0E021096921F00401F0
:100DE0004FF0E022116170477047000010B51348C2
:100DF000006840F001001149086008464068104949
:100E000008400E494860084600680E4908400B49F2
:100E100008600846006820F48020086008464068A2
:100E200020F4FE0048604FF41F008860FFF753FF76
:100E30004FF000600449086010BD0000001002403F
:100E40000000FFF8FFFFF6FE08ED00E030B589B0C6
:100E500005460C4601210220FFF782FE01210420F5
:100E6000FFF79EFE8020ADF8200018208DF82300AB
:100E700003208DF8220008A91348FFF725FAADF8E2
:100E80001850ADF814400020ADF81A00ADF8160067
:100E900005A90E4800F08AF87020ADF80400012082
:100EA000ADF806000020ADF80C0001A9074800F0DD
:100EB0001BF80821054800F069F80121034800F0FB
:100EC00007F809B030BD00000008014000040040F0
:100ED00021B1028842F00102028004E002884FF64C
:100EE000FE731A400280704770B500240022002370
:100EF000058C4FF6EF7635400584028C8388048B91
:100F000048F6FF752C404FF6FF452C400D884FF6F4
:100F1000FF7606EA05252C434FF6DF752A400D893A
:100F200006EA05152A434D8806EA05152A43154D9C
:100F3000A84202D0144DA8421DD14FF67F752A4019
:100F40004D894FF6FF7606EA05152A434FF6BF7521
:100F50002A408D8806EA05152A434FF6FF352B40B7
:100F60004FF2FF752B408D8906EA85052B43CD890D
:100F700006EA85052B4383800483CD880587028498
:100F800070BD0000002C0140003401400A460021E1
:100F9000018B4FF2FF7319404FF6FF7303EA0223F0
:100FA00019430183704701877047000000220288BF
:100FB0001D4B98420ED01D4B98420BD0B0F1804F84
:100FC00008D01B4B984205D01A4B984202D01A4BBE
:100FD000984204D14FF68F731A404B881A43174B2F
:100FE000984207D0164B984204D04FF6FF431A4060
:100FF000CB881A4302808B8883850B8803850A4B34
:1010000098420BD0094B984208D00E4B984205D01D
:101010000D4B984202D00D4B984201D10B7A0386BA
:101020000123838270470000002C014000340140FE
:101030000004004000080040000C00400010004088
:1010400000140040004001400044014000480140BD
:1010500008B501210520FFF7A3FD18208DF8030036
:101060000420ADF8000003208DF80200694608480E
:10107000FFF72AF904208DF803000820ADF80000DE
:1010800003208DF8020069460148FFF71DF908BDED
:101090000008014010B586B00446FFF7D9FF194893
:1010A00000F026F901211848FFF75AFD01940020AD
:1010B000ADF810000C20ADF80E000020ADF80C00CB
:1010C000ADF80A00ADF8080001A90E4800F084F957
:1010D00026208DF8140001208DF8170003208DF8CC
:1010E00015008DF8160005A8FFF7BAFB012240F2A3
:1010F0002551044800F04AF90121024800F0ECF8BB
:1011000006B010BD004400400100020010B55B486D
:1011100000F0CEF9C1B25A4802780078401C584B12
:10112000187058488154007823280BD0002404E01C
:10113000002054490855601CC4B2112CF8DB002073
:101140004F4908704E480078102879D14D48C07B2F
:101150002A287ED100204B49494A127888544849B0
:101160000870494801684748FFF72EF800BB312155
:10117000424800F0A2F9BE214448FFF714FFFFF7F0
:10118000B1FB102342A200210846FFF7BFFC102349
:1011900042A202210020FFF7B9FC01214348FFF7DA
:1011A00070F9642000F008FA01214048FFF76BF95C
:1011B0003F4801683348FFF707F800BB30212F484C
:1011C00000F07BF9B4213148FFF7EDFEFFF78AFB11
:1011D00010232FA200210846FFF798FC102335A208
:1011E00002210020FFF792FC01213048FFF749F966
:1011F000642000F0E1F901212C48FFF744F931485F
:1012000001682048FEF7E0FFC0B9FFF76BFB102331
:101210001FA200210846FFF779FC10232AA2022111
:101220000020FFF773FC01212048FFF72AF9642012
:1012300000F0C2F901211D48FFF725F9002405E05F
:1012400007E000200F490855601CC4B2112CF8DBE0
:1012500013E00B48007810280FD10A48C07B2A28D9
:101260000BD0002404E0002006490855601CC4B2DD
:10127000112CF8DB00200249087010BD004400402A
:101280002800002048000020380000200004004012
:101290004661636520476174650000004F70656EAC
:1012A0002074686520646F6F72000000000C0140BC
:1012B0003C000020436C6F73652074686520646F88
:1012C0006F720000400000205769466920436F6E2E
:1012D0006E6563746564000021B1828942F4005236
:1012E000828104E082894DF6FF731A408281704743
:1012F00010B504462048844209D101218803FFF734
:101300005FFC00214FF48040FFF75AFC32E01B489D
:10131000844209D101214804FFF732FC00214FF437
:101320000030FFF72DFC25E01548844209D101214A
:101330008804FFF725FC00214FF48020FFF720FCF4
:1013400018E01048844209D10121C804FFF718FCB5
:1013500000214FF40020FFF713FC0BE00A48844201
:1013600008D101210805FFF70BFC00214FF4801084
:10137000FFF706FC10BD00000038014000440040AB
:1013800000480040004C004000500040F0B50346CB
:10139000002400260025002040F66A17B94200D13B
:1013A00000BF1846C1F3421401F01F06012707FAD7
:1013B00006F5012C01D10C3004E0022C01D11030D3
:1013C00000E014301AB107682F43076002E0076895
:1013D000AF430760F0BD00002DE9F04786B0054639
:1013E0000E460024A24600BFA1460027B08900B1E6
:1013F00000BF2F462C8A4CF6FF700440F08804434F
:101400002C82AC894EF6F3100440B0883189084331
:10141000718908430443AC81AC8A4FF6FF40044015
:10142000B0890443AC8201A8FFF7DAFB1F4887426A
:1014300002D1DDF810A001E0DDF80CA0A88900F4CD
:10144000004040B10AEBCA0000EB0A1031684900C5
:10145000B0FBF1F807E00AEBCA0000EB0A103168B4
:101460008900B0FBF1F86420B8FBF0F0040120091A
:10147000642101FB1089A88900F4004040B13220AA
:1014800000EBC900B0FBF1F000F00700044308E0F6
:10149000322000EB09106421B0FBF1F000F00F00E6
:1014A00004432C8106B0BDE8F087000000380140FD
:1014B00001468888C0F308007047C1F308028280A3
:1014C000704700BFFEE700002DE9F04105462C46BD
:1014D00020211148FEF7D5FF002619E0274607F026
:1014E0008007802F04D140210B48FEF7CCFF03E09A
:1014F00040210948FEF7C5FF6006040E202106487A
:10150000FEF7C1FF20210448FEF7BBFF701CC6B2E6
:10151000082EE3DBBDE8F0810008014010B5044669
:10152000FEF7D0FF7820FFF7CFFFFEF7EFFF002098
:10153000FFF7CAFFFEF7EAFF2046FFF7C5FFFEF7F9
:10154000E5FFFEF7D3FF10BD10B50446FEF7BAFF66
:101550007820FFF7B9FFFEF7D9FF4020FFF7B4FF6F
:10156000FEF7D4FF2046FFF7AFFFFEF7CFFFFEF7F1
:10157000BDFF10BD10B56FF00400FFF721FC0A4855
:1015800000680A49B0FBF1F0094908700846007884
:1015900000EB4001C1EBC0104FF6FF7101EAC00043
:1015A0000449088010BD00000000002000127A00ED
:1015B00044000020460000200146114A12884A4398
:1015C0004FF0E0235A6100229A611A46126942F0F4
:1015D00001021A6100BF4FF0E022106900F0010221
:1015E0001AB100F48032002AF5D04FF0E0221269DF
:1015F00022F001024FF0E0231A6100229A61704745
:101600004600002008B5012700264FF4A060FFF730
:101610005FF901210820FFF7C3FAFFF7ABFF4FF492
:10162000E130FFF737FD41F61F41C720FFF70EFC01
:10163000FFF794F9B4216548FFF7B5FCFFF752F9BD
:10164000102363A200210846FFF760FA102363A26B
:1016500002210020FFF75AFA01216448FEF7C0FE7C
:1016600010208DF803000120ADF8000003208DF854
:10167000020069465E48FEF727FE01215C48FEF73E
:1016800002FFFFF7B1F8A0E0FEF74CFF0546632D1F
:10169000F9D0A5F10A0006287DD2DFE800F04F62FC
:1016A00076790320002404E0002052490855601C8C
:1016B000C4B2062CF8DB0026102348A20221002029
:1016C000FFF724FA10234CA204210020FFF71EFA92
:1016D000102349A206210020FFF718FA69E0002430
:1016E00008E04948005D4349095D884200D0002771
:1016F000601CC4B2062CF4DB012F0AD1102343A2D4
:1017000004210020FFF702FABE213048FFF74BFC0E
:1017100009E0102341A204210020FFF7F7F9B421CA
:101720002A48FFF740FC0127002404E0002031494B
:101730000855601CC4B2062CF8DB3AE0BE212348F1
:10174000FFF731FCFFF7CEF8102321A20021084655
:10175000FFF7DCF9102335A202210020FFF7D6F9AC
:1017600027E0B4211948FFF71EFCFFF7BBF8102350
:1017700017A200210846FFF7C9F910232FA2022162
:101780000020FFF7C3F914E005E0FFF7CBF810E005
:10179000FFF7D6F80DE0062E0ADA16498D55F10648
:1017A000080E10232A220621FFF75EF9701CC6B22C
:1017B00000BF00BF01210E48FEF763FE6420FFF763
:1017C000FBFE01210A48FEF75EFE5DE700040040D3
:1017D000466163652047617465000000496E70755D
:1017E000742050617373776F7264000000043000DE
:1017F000000C01402F00002020202020202020204D
:1018000020202020202000002900002057454C43A4
:101810004F4D4520202020202000000050415353F0
:1018200057442057524F4E47210000004F70656EBD
:101830002074686520646F6F72000000436C6F73E2
:10184000652074686520646F6F72000000000000FE
:1018500000000000002F0000000007000700001437
:101860007F147F1400242A7F2A1200626408132345
:1018700000364955225000000503000000001C22DC
:101880004100000041221C000014083E081400081A
:10189000083E0808000000A06000000808080808CA
:1018A000000060600000002010080402003E514962
:1018B000453E0000427F4000004261514946002100
:1018C00041454B31001814127F100027454545391A
:1018D000003C4A4949300001710905030036494975
:1018E000493600064949291E00003636000000002E
:1018F0005636000000081422410000141414141479
:101900000000412214080002015109060032495921
:10191000513E007C1211127C007F49494936003E3D
:1019200041414122007F4141221C007F49494941F8
:10193000007F09090901003E4149497A007F0808F2
:10194000087F0000417F4100002040413F01007FAF
:1019500008142241007F40404040007F020C027F7B
:10196000007F0408107F003E4141413E007F09098D
:101970000906003E4151215E007F091929460046B3
:10198000494949310001017F0101003F4040403F8A
:10199000001F2040201F003F4038403F00631408D4
:1019A00014630007087008070061514945430000AF
:1019B0007F41410000552A552A55000041417F00D2
:1019C00000040201020400404040404000000102C7
:1019D0000400002054545478007F484444380038B0
:1019E0004444442000384444487F00385454541838
:1019F00000087E0901020018A4A4A47C007F08044A
:101A000004780000447D4000004080847D00007F19
:101A1000102844000000417F4000007C0418047836
:101A2000007C0804047800384444443800FC242432
:101A300024180018242418FC007C0804040800481A
:101A40005454542000043F444020003C4040207C3B
:101A5000001C2040201C003C4030403C004428102A
:101A60002844001CA0A0A07C004464544C441414DE
:101A70001414141400000000000000000000000016
:101A800000000000000000F800000000000000332B
:101A90003000000000100C06100C060000000000D2
:101AA0000000000040C07840C0784000043F0404BB
:101AB0003F040400007088FC08300000001820FF7C
:101AC000211E0000F008F000E018000000211C03B7
:101AD0001E211E0000F00888700000001E21232433
:101AE0001927211010160E00000000000000000051
:101AF00000000000000000E01804020000000007E1
:101B00001820400000020418E000000000402018E7
:101B100007000000404080F0804040000202010FBA
:101B200001020200000000F0000000000101011F9E
:101B300001010100000000000000000080B0700002
:101B40000000000000000000000000000001010192
:101B50000101010100000000000000000030300021
:101B600000000000000000008060180400601806FB
:101B70000100000000E010080810E000000F102035
:101B800020100F00001010F8000000000020203F7F
:101B90002020000000700808088870000030282409
:101BA00022213000003008888848300000182020AA
:101BB00020110E000000C02010F8000000070424CF
:101BC000243F240000F80888880808000019212014
:101BD00020110E0000E0108888180000000F11206E
:101BE00020110E0000380808C83808000000003F27
:101BF000000000000070880808887000001C222186
:101C000021221C0000E010080810E0000000312232
:101C100022110F00000000C0C000000000000030D2
:101C20003000000000000080000000000000806024
:101C300000000000000080402010080000010204A5
:101C4000081020004040404040404000040404048C
:101C50000404040000081020408000000020100848
:101C600004020100007048080808F000000000307D
:101C700036010000C030C828E810E000071827240B
:101C800023140B000000C038E0000000203C2302B9
:101C90000227382008F8888888700000203F20201C
:101CA00020110E00C030080808083800071820204E
:101CB0002010080008F808080810E000203F202045
:101CC00020100F0008F88888E8081000203F202026
:101CD0002320180008F88888E8081000203F20001A
:101CE00003000000C0300808083800000718202052
:101CF000221E020008F808000008F808203F210111
:101D000001213F20000808F8080800000020203FBB
:101D10002020000000000808F8080800C08080802B
:101D20007F00000008F888C028180800203F200124
:101D30002638200008F8080000000000203F20207E
:101D40002020300008F8F800F8F80800203F003F95
:101D5000003F200008F830C00008F808203F2000AD
:101D600007183F00E01008080810E0000F102020BE
:101D700020100F0008F808080808F000203F210193
:101D800001010000E01008080810E0000F182424EA
:101D900038504F0008F8888888887000203F20005D
:101DA000030C302000708808080838000038202113
:101DB00021221C00180808F8080818000000203F1D
:101DC0002000000008F808000008F808001F202084
:101DD00020201F000878880000C838080000073855
:101DE0000E010000F80800F80008F800033C0700A6
:101DF000073C0300081868808068180820302C030E
:101E0000032C30200838C800C83808000000203FE4
:101E10002000000010080808C838080020382621D3
:101E200020201800000000FE020202000000007FD7
:101E300040404000000C30C00000000000000001E5
:101E40000638C00000020202FE00000000404040D0
:101E50007F000000000004020202040000000000F5
:101E60000000000000000000000000008080808072
:101E7000808080800002020400000000000000005A
:101E800000000000000080808080000000192422F3
:101E900022223F2008F8008080000000003F11202F
:101EA00020110E000000008080800000000E112034
:101EB00020201100000000808088F800000E112012
:101EC00020103F200000808080800000001F222220
:101ED00022221300008080F0888888180020203F8C
:101EE000202000000000808080808000006B94949F
:101EF0009493600008F8008080800000203F21005B
:101F000000203F2000809898000000000020203F23
:101F100020200000000000809898000000C0808011
:101F2000807F000008F8000080808000203F2402AD
:101F30002D302000000808F8000000000020203F9D
:101F4000202000008080808080808000203F200052
:101F50003F20003F8080008080800000203F2100E3
:101F600000203F200000808080800000001F202093
:101F700020201F00808000808000000080FFA120C2
:101F800020110E000000008080808000000E1120D3
:101F900020A0FF80808080008080800020203F2162
:101FA0002000010000008080808080000033242415
:101FB00024241900008080E0808000000000001FC1
:101FC000202000008080000000808000001F202072
:101FD00020103F20808080000080808000010E3033
:101FE0000806010080800080008080800F300C0394
:101FF0000C300F0000808000808080000020312E97
:102000000E312000808080000080808080818E7072
:102010001806010000808080808080000021302C24
:102020002221300000000000807C0202000000003D
:10203000003F404000000000FF00000000000000E2
:10204000FF0000000002027C800000000040403FD2
:10205000000000000006010102020404000000006C
:1020600000000000236F70656E2074686520646F47
:102070006F72212A00000000235769466920436FD0
:102080006E6E65637465642A0000000023636C6FE4
:1020900073652074686520646F6F722A0000000009
:1020A000C0200008000000204800000028010008AF
:1020B00008210008480000207806000044010008BC
:1020C00000A24A0400000000000000000102030416
:1020D00006070809000000000102030401020304CE
:1020E00006070809020406080001020304050600A9
:1020F0000000000000000000642000088C200008A0
:08210000782000080000000037
:04000005080000ED02
:00000001FF
