:10000000020138BB010CE58229F582E5833AF583CC
:10001000E0225006E92582F8E622BBFE06E92582A9
:10002000F8E222E58229F582E5833AF583E493221A
:10003000EF8DF0A4A8F0CF8CF0A428CE8DF0A42EE4
:10004000FE22BC000BBE0029EF8DF084FFADF02234
:10005000E4CCF875F008EF2FFFEE33FEEC33FCEE46
:100060009DEC984005FCEE9DFE0FD5F0E9E4CEFD39
:1000700022EDF8F5F0EE8420D21CFEADF075F0080C
:10008000EF2FFFED33FD4007985006D5F0F222C365
:1000900098FD0FD5F0EA228B088A09890A1200F729
:1000A000E4FDAB08AA09A90A8D827583001200033A
:1000B000FF60061200ED0D80E9221201157BFF7A28
:1000C00001794E7D017F011200977BFF7A017959FA
:1000D0007D017F0212009780FECFCDCFCECCCE1215
:1000E00000427C007D0A120042ED2430FFD2A612AD
:1000F0000129C2A702012FAE07EEFB7A006401704E
:1001000004ED148009EB64024A7009ED243F448039
:10011000FF120144227F381201447F0C1201447FF8
:10012000061201447F01020144C2A58F80D2A77F3D
:10013000027EEFDEFEDFFC22787FE4F6D8FD7581DB
:100140000A0200BAC2A6120129C2A702012F313940
:0D015000303330373033313100786C7000BF
:00000001FF
